{
  "contractName": "Donations",
  "abi": [
    {
      "constant": false,
      "inputs": [
        {
          "internalType": "string",
          "name": "_name",
          "type": "string"
        },
        {
          "internalType": "string",
          "name": "_sender",
          "type": "string"
        },
        {
          "internalType": "string",
          "name": "_timestamp",
          "type": "string"
        },
        {
          "internalType": "uint256",
          "name": "_amount",
          "type": "uint256"
        }
      ],
      "name": "addDonation",
      "outputs": [],
      "payable": false,
      "stateMutability": "nonpayable",
      "type": "function"
    },
    {
      "constant": false,
      "inputs": [
        {
          "internalType": "string",
          "name": "_receiver",
          "type": "string"
        },
        {
          "internalType": "uint256",
          "name": "_timestamp",
          "type": "uint256"
        },
        {
          "internalType": "uint256",
          "name": "_amount",
          "type": "uint256"
        }
      ],
      "name": "makePayment",
      "outputs": [],
      "payable": false,
      "stateMutability": "nonpayable",
      "type": "function"
    },
    {
      "constant": true,
      "inputs": [],
      "name": "getStructDonations",
      "outputs": [
        {
          "components": [
            {
              "internalType": "string",
              "name": "name",
              "type": "string"
            },
            {
              "internalType": "uint256",
              "name": "sender",
              "type": "uint256"
            },
            {
              "internalType": "string",
              "name": "timestamp",
              "type": "string"
            },
            {
              "internalType": "uint256",
              "name": "amount",
              "type": "uint256"
            }
          ],
          "internalType": "struct Donations.Donation[]",
          "name": "",
          "type": "tuple[]"
        }
      ],
      "payable": false,
      "stateMutability": "view",
      "type": "function"
    },
    {
      "constant": true,
      "inputs": [],
      "name": "getStructPayments",
      "outputs": [
        {
          "components": [
            {
              "internalType": "uint256",
              "name": "receiver",
              "type": "uint256"
            },
            {
              "internalType": "uint256",
              "name": "timestamp",
              "type": "uint256"
            },
            {
              "internalType": "uint256",
              "name": "amount",
              "type": "uint256"
            }
          ],
          "internalType": "struct Donations.Payment[]",
          "name": "",
          "type": "tuple[]"
        }
      ],
      "payable": false,
      "stateMutability": "view",
      "type": "function"
    },
    {
      "constant": false,
      "inputs": [
        {
          "internalType": "string",
          "name": "_sender",
          "type": "string"
        }
      ],
      "name": "getUserDonations",
      "outputs": [
        {
          "components": [
            {
              "internalType": "string",
              "name": "name",
              "type": "string"
            },
            {
              "internalType": "uint256",
              "name": "sender",
              "type": "uint256"
            },
            {
              "internalType": "string",
              "name": "timestamp",
              "type": "string"
            },
            {
              "internalType": "uint256",
              "name": "amount",
              "type": "uint256"
            }
          ],
          "internalType": "struct Donations.Donation[]",
          "name": "",
          "type": "tuple[]"
        }
      ],
      "payable": false,
      "stateMutability": "nonpayable",
      "type": "function"
    },
    {
      "constant": true,
      "inputs": [],
      "name": "getDonations",
      "outputs": [
        {
          "components": [
            {
              "internalType": "string",
              "name": "name",
              "type": "string"
            },
            {
              "internalType": "uint256",
              "name": "sender",
              "type": "uint256"
            },
            {
              "internalType": "string",
              "name": "timestamp",
              "type": "string"
            },
            {
              "internalType": "uint256",
              "name": "amount",
              "type": "uint256"
            }
          ],
          "internalType": "struct Donations.Donation[]",
          "name": "",
          "type": "tuple[]"
        }
      ],
      "payable": false,
      "stateMutability": "view",
      "type": "function"
    },
    {
      "constant": false,
      "inputs": [],
      "name": "getlatestDonations",
      "outputs": [
        {
          "components": [
            {
              "internalType": "string",
              "name": "name",
              "type": "string"
            },
            {
              "internalType": "uint256",
              "name": "sender",
              "type": "uint256"
            },
            {
              "internalType": "string",
              "name": "timestamp",
              "type": "string"
            },
            {
              "internalType": "uint256",
              "name": "amount",
              "type": "uint256"
            }
          ],
          "internalType": "struct Donations.Donation[]",
          "name": "",
          "type": "tuple[]"
        }
      ],
      "payable": false,
      "stateMutability": "nonpayable",
      "type": "function"
    },
    {
      "constant": false,
      "inputs": [],
      "name": "getlastestPayments",
      "outputs": [
        {
          "components": [
            {
              "internalType": "uint256",
              "name": "receiver",
              "type": "uint256"
            },
            {
              "internalType": "uint256",
              "name": "timestamp",
              "type": "uint256"
            },
            {
              "internalType": "uint256",
              "name": "amount",
              "type": "uint256"
            }
          ],
          "internalType": "struct Donations.Payment[]",
          "name": "",
          "type": "tuple[]"
        }
      ],
      "payable": false,
      "stateMutability": "nonpayable",
      "type": "function"
    },
    {
      "constant": true,
      "inputs": [],
      "name": "calculateTotalDonationAmount",
      "outputs": [
        {
          "internalType": "uint256",
          "name": "",
          "type": "uint256"
        }
      ],
      "payable": false,
      "stateMutability": "view",
      "type": "function"
    },
    {
      "constant": true,
      "inputs": [],
      "name": "calculateTotalPaymentAmount",
      "outputs": [
        {
          "internalType": "uint256",
          "name": "",
          "type": "uint256"
        }
      ],
      "payable": false,
      "stateMutability": "view",
      "type": "function"
    }
  ],
  "bytecode": "0x608060405234801561001057600080fd5b506119b1806100206000396000f3fe608060405234801561001057600080fd5b506004361061009e5760003560e01c8063673e940411610066578063673e940414610137578063aa98044314610167578063e25f841614610185578063e6c96bec146101a3578063f8eeb104146101bf5761009e565b806308150c64146100a357806308307afd146100c15780630b70570d146100df5780631afc8e9e146100fd5780631d91cc8e14610119575b600080fd5b6100ab6101dd565b6040516100b891906117e2565b60405180910390f35b6100c961022f565b6040516100d691906117c0565b60405180910390f35b6100e76103db565b6040516100f4919061179e565b60405180910390f35b61011760048036036101129190810190611442565b610592565b005b610121610672565b60405161012e919061179e565b60405180910390f35b610151600480360361014c9190810190611401565b610ad9565b60405161015e919061179e565b60405180910390f35b61016f610dc2565b60405161017c91906117c0565b60405180910390f35b61018d610e3f565b60405161019a919061179e565b60405180910390f35b6101bd60048036036101b891908101906114ed565b610ff6565b005b6101c761109f565b6040516101d491906117e2565b60405180910390f35b6000806000905060008090505b600080549050811015610227576000818154811061020457fe5b9060005260206000209060040201600301548201915080806001019150506101ea565b508091505090565b6060600a600180549050116102bb576001805480602002602001604051908101604052809291908181526020016000905b828210156102b05783829060005260206000209060030201604051806060016040529081600082015481526020016001820154815260200160028201548152505081526020019060010190610260565b5050505090506103d8565b60006004816102ca91906110f1565b506000600180805490500390505b600a60018054905003811061035e576004600182815481106102f657fe5b9060005260206000209060030201908060018154018082558091505090600182039060005260206000209060030201600090919290919091506000820154816000015560018201548160010155600282015481600201555050508080600190039150506102d8565b506004805480602002602001604051908101604052809291908181526020016000905b828210156103d15783829060005260206000209060030201604051806060016040529081600082015481526020016001820154815260200160028201548152505081526020019060010190610381565b5050505090505b90565b60606000805480602002602001604051908101604052809291908181526020016000905b828210156105895783829060005260206000209060040201604051806080016040529081600082018054600181600116156101000203166002900480601f0160208091040260200160405190810160405280929190818152602001828054600181600116156101000203166002900480156104bb5780601f10610490576101008083540402835291602001916104bb565b820191906000526020600020905b81548152906001019060200180831161049e57829003601f168201915b5050505050815260200160018201548152602001600282018054600181600116156101000203166002900480601f0160208091040260200160405190810160405280929190818152602001828054600181600116156101000203166002900480156105675780601f1061053c57610100808354040283529160200191610567565b820191906000526020600020905b81548152906001019060200180831161054a57829003601f168201915b50505050508152602001600382015481525050815260200190600101906103ff565b50505050905090565b6000836040516020016105a59190611787565b6040516020818303038152906040528051906020012060001c90506105c8611123565b604051806080016040528087815260200183815260200185815260200184815250905060008190806001815401808255809150509060018203906000526020600020906004020160009091929091909150600082015181600001908051906020019061063592919061114b565b5060208201518160010155604082015181600201908051906020019061065c92919061114b565b5060608201518160030155505050505050505050565b6060600a60008054905011610838576000805480602002602001604051908101604052809291908181526020016000905b8282101561082d5783829060005260206000209060040201604051806080016040529081600082018054600181600116156101000203166002900480601f01602080910402602001604051908101604052809291908181526020018280546001816001161561010002031660029004801561075f5780601f106107345761010080835404028352916020019161075f565b820191906000526020600020905b81548152906001019060200180831161074257829003601f168201915b5050505050815260200160018201548152602001600282018054600181600116156101000203166002900480601f01602080910402602001604051908101604052809291908181526020018280546001816001161561010002031660029004801561080b5780601f106107e05761010080835404028352916020019161080b565b820191906000526020600020905b8154815290600101906020018083116107ee57829003601f168201915b50505050508152602001600382015481525050815260200190600101906106a3565b505050509050610ad6565b600060038161084791906111cb565b50600060016000805490500390505b600a6000805490500381106109225760036000828154811061087457fe5b906000526020600020906004020190806001815401808255809150509060018203906000526020600020906004020160009091929091909150600082018160000190805460018160011615610100020316600290046108d49291906111fd565b5060018201548160010155600282018160020190805460018160011615610100020316600290046109069291906111fd565b5060038201548160030155505050808060019003915050610856565b506003805480602002602001604051908101604052809291908181526020016000905b82821015610acf5783829060005260206000209060040201604051806080016040529081600082018054600181600116156101000203166002900480601f016020809104026020016040519081016040528092919081815260200182805460018160011615610100020316600290048015610a015780601f106109d657610100808354040283529160200191610a01565b820191906000526020600020905b8154815290600101906020018083116109e457829003601f168201915b5050505050815260200160018201548152602001600282018054600181600116156101000203166002900480601f016020809104026020016040519081016040528092919081815260200182805460018160011615610100020316600290048015610aad5780601f10610a8257610100808354040283529160200191610aad565b820191906000526020600020905b815481529060010190602001808311610a9057829003601f168201915b5050505050815260200160038201548152505081526020019060010190610945565b5050505090505b90565b60606000600281610aea91906111cb565b5060008090505b600080549050811015610c0a5760008181548110610b0b57fe5b90600052602060002090600402016001015483604051602001610b2e9190611787565b6040516020818303038152906040528051906020012060001c1415610bfd57600260008281548110610b5c57fe5b90600052602060002090600402019080600181540180825580915050906001820390600052602060002090600402016000909192909190915060008201816000019080546001816001161561010002031660029004610bbc9291906111fd565b506001820154816001015560028201816002019080546001816001161561010002031660029004610bee9291906111fd565b50600382015481600301555050505b8080600101915050610af1565b506002805480602002602001604051908101604052809291908181526020016000905b82821015610db75783829060005260206000209060040201604051806080016040529081600082018054600181600116156101000203166002900480601f016020809104026020016040519081016040528092919081815260200182805460018160011615610100020316600290048015610ce95780601f10610cbe57610100808354040283529160200191610ce9565b820191906000526020600020905b815481529060010190602001808311610ccc57829003601f168201915b5050505050815260200160018201548152602001600282018054600181600116156101000203166002900480601f016020809104026020016040519081016040528092919081815260200182805460018160011615610100020316600290048015610d955780601f10610d6a57610100808354040283529160200191610d95565b820191906000526020600020905b815481529060010190602001808311610d7857829003601f168201915b5050505050815260200160038201548152505081526020019060010190610c2d565b505050509050919050565b60606001805480602002602001604051908101604052809291908181526020016000905b82821015610e365783829060005260206000209060030201604051806060016040529081600082015481526020016001820154815260200160028201548152505081526020019060010190610de6565b50505050905090565b60606000805480602002602001604051908101604052809291908181526020016000905b82821015610fed5783829060005260206000209060040201604051806080016040529081600082018054600181600116156101000203166002900480601f016020809104026020016040519081016040528092919081815260200182805460018160011615610100020316600290048015610f1f5780601f10610ef457610100808354040283529160200191610f1f565b820191906000526020600020905b815481529060010190602001808311610f0257829003601f168201915b5050505050815260200160018201548152602001600282018054600181600116156101000203166002900480601f016020809104026020016040519081016040528092919081815260200182805460018160011615610100020316600290048015610fcb5780601f10610fa057610100808354040283529160200191610fcb565b820191906000526020600020905b815481529060010190602001808311610fae57829003601f168201915b5050505050815260200160038201548152505081526020019060010190610e63565b50505050905090565b6000836040516020016110099190611787565b6040516020818303038152906040528051906020012060001c905061102c611284565b6040518060600160405280838152602001858152602001848152509050600181908060018154018082558091505090600182039060005260206000209060030201600090919290919091506000820151816000015560208201518160010155604082015181600201555050505050505050565b6000806000905060008090505b6001805490508110156110e957600181815481106110c657fe5b9060005260206000209060030201600201548201915080806001019150506110ac565b508091505090565b81548183558181111561111e5760030281600302836000526020600020918201910161111d91906112a5565b5b505050565b6040518060800160405280606081526020016000815260200160608152602001600081525090565b828054600181600116156101000203166002900490600052602060002090601f016020900481019282601f1061118c57805160ff19168380011785556111ba565b828001600101855582156111ba579182015b828111156111b957825182559160200191906001019061119e565b5b5090506111c791906112dc565b5090565b8154818355818111156111f8576004028160040283600052602060002091820191016111f79190611301565b5b505050565b828054600181600116156101000203166002900490600052602060002090601f016020900481019282601f106112365780548555611273565b8280016001018555821561127357600052602060002091601f016020900482015b82811115611272578254825591600101919060010190611257565b5b50905061128091906112dc565b5090565b60405180606001604052806000815260200160008152602001600081525090565b6112d991905b808211156112d55760008082016000905560018201600090556002820160009055506003016112ab565b5090565b90565b6112fe91905b808211156112fa5760008160009055506001016112e2565b5090565b90565b61134d91905b8082111561134957600080820160006113209190611350565b60018201600090556002820160006113389190611350565b600382016000905550600401611307565b5090565b90565b50805460018160011615610100020316600290046000825580601f106113765750611395565b601f01602090049060005260206000209081019061139491906112dc565b5b50565b600082601f8301126113a957600080fd5b81356113bc6113b78261182a565b6117fd565b915080825260208301602083018583830111156113d857600080fd5b6113e3838284611904565b50505092915050565b6000813590506113fb81611957565b92915050565b60006020828403121561141357600080fd5b600082013567ffffffffffffffff81111561142d57600080fd5b61143984828501611398565b91505092915050565b6000806000806080858703121561145857600080fd5b600085013567ffffffffffffffff81111561147257600080fd5b61147e87828801611398565b945050602085013567ffffffffffffffff81111561149b57600080fd5b6114a787828801611398565b935050604085013567ffffffffffffffff8111156114c457600080fd5b6114d087828801611398565b92505060606114e1878288016113ec565b91505092959194509250565b60008060006060848603121561150257600080fd5b600084013567ffffffffffffffff81111561151c57600080fd5b61152886828701611398565b9350506020611539868287016113ec565b925050604061154a868287016113ec565b9150509250925092565b600061156083836116bd565b905092915050565b60006115748383611727565b60608301905092915050565b600061158b82611876565b61159581856118bc565b9350836020820285016115a785611856565b8060005b858110156115e357848403895281516115c48582611554565b94506115cf836118a2565b925060208a019950506001810190506115ab565b50829750879550505050505092915050565b600061160082611881565b61160a81856118cd565b935061161583611866565b8060005b8381101561164657815161162d8882611568565b9750611638836118af565b925050600181019050611619565b5085935050505092915050565b600061165e82611897565b61166881856118ef565b9350611678818560208601611913565b80840191505092915050565b600061168f8261188c565b61169981856118de565b93506116a9818560208601611913565b6116b281611946565b840191505092915050565b600060808301600083015184820360008601526116da8282611684565b91505060208301516116ef6020860182611769565b50604083015184820360408601526117078282611684565b915050606083015161171c6060860182611769565b508091505092915050565b60608201600082015161173d6000850182611769565b5060208201516117506020850182611769565b5060408201516117636040850182611769565b50505050565b611772816118fa565b82525050565b611781816118fa565b82525050565b60006117938284611653565b915081905092915050565b600060208201905081810360008301526117b88184611580565b905092915050565b600060208201905081810360008301526117da81846115f5565b905092915050565b60006020820190506117f76000830184611778565b92915050565b6000604051905081810181811067ffffffffffffffff8211171561182057600080fd5b8060405250919050565b600067ffffffffffffffff82111561184157600080fd5b601f19601f8301169050602081019050919050565b6000819050602082019050919050565b6000819050602082019050919050565b600081519050919050565b600081519050919050565b600081519050919050565b600081519050919050565b6000602082019050919050565b6000602082019050919050565b600082825260208201905092915050565b600082825260208201905092915050565b600082825260208201905092915050565b600081905092915050565b6000819050919050565b82818337600083830152505050565b60005b83811015611931578082015181840152602081019050611916565b83811115611940576000848401525b50505050565b6000601f19601f8301169050919050565b611960816118fa565b811461196b57600080fd5b5056fea365627a7a72315820985d91a884111eedebdc84f1442e1c478ec253a0b1e2a14fe2a3698d7c5e08086c6578706572696d656e74616cf564736f6c634300050c0040",
  "source": "pragma solidity >=0.4.22 <0.6.0;\npragma experimental ABIEncoderV2; // Testing\n\ncontract Donations {\n\n    struct Donation {\n        string name;\n        uint sender;\n        string timestamp;\n        uint amount;\n    }\n\n    struct Payment {\n        uint receiver;\n        uint timestamp;\n        uint amount;\n    }\n\n    //Constant value for amount of returns\n    uint constant latestAmount = 10;\n\n    Donation[] donationCollection;\n    Payment[] paymentCollection;\n\n    //Holds collections in storage for return functions\n    Donation[] userCollection;\n    Donation[] latestDonationCollection;\n    Payment[] latestPaymentCollection;\n\n    // enter a new donation\n    function addDonation(string memory _name, string memory _sender, string memory _timestamp, uint _amount) public{\n        uint encodedSender = uint(keccak256(abi.encodePacked(_sender)));\n        Donation memory newDonation = Donation(_name, encodedSender, _timestamp, _amount);\n        donationCollection.push(newDonation);\n    }\n\n    function makePayment(string memory _receiver, uint _timestamp, uint _amount) public{\n        uint encodedReceiver = uint(keccak256(abi.encodePacked(_receiver)));\n        Payment memory newPayment = Payment(encodedReceiver, _timestamp, _amount);\n        paymentCollection.push(newPayment);\n    }\n\n    function getStructDonations() public view returns(Donation[] memory){\n        return donationCollection;\n    }\n\n    function getStructPayments() public view returns(Payment[] memory){\n        return paymentCollection;\n    }\n\n    function getUserDonations(string memory _sender) public returns(Donation[] memory){\n        userCollection.length = 0;\n        for (uint i = 0; i < donationCollection.length; i++) {\n            if(uint(keccak256(abi.encodePacked((_sender)))) == donationCollection[i].sender){\n                userCollection.push(donationCollection[i]);\n            }\n        }\n        return userCollection;\n    }\n\n    function getDonations() public view returns(Donation[] memory) {\n        return donationCollection;\n    }\n\n    function getlatestDonations() public returns(Donation[] memory){\n        if(donationCollection.length <= latestAmount) {\n            return donationCollection;\n        } else {\n            latestDonationCollection.length = 0;\n            for (uint i = donationCollection.length - 1; i >= (donationCollection.length - latestAmount); i--) {\n                latestDonationCollection.push(donationCollection[i]);\n            }\n        }\n        return latestDonationCollection;\n    }\n\n    function getlastestPayments() public returns(Payment[] memory){\n        if(paymentCollection.length <= latestAmount){\n            return paymentCollection;\n        } else{\n        latestPaymentCollection.length = 0;\n        for (uint i = paymentCollection.length - 1; i >= (paymentCollection.length - latestAmount); i--) {\n            latestPaymentCollection.push(paymentCollection[i]);\n        }\n        return latestPaymentCollection;\n        }\n    }\n\n    function calculateTotalDonationAmount() public view returns(uint){\n        uint sum = 0;\n        for (uint i = 0; i < donationCollection.length; i++) {\n            sum += donationCollection[i].amount;\n        }\n        return sum;\n    }\n\n    function calculateTotalPaymentAmount() public view returns(uint){\n        uint sum = 0;\n        for (uint i = 0; i < paymentCollection.length; i++) {\n            sum += paymentCollection[i].amount;\n        }\n        return sum;\n    }\n}",
  "sourcePath": "/Users/daandirker/Development/Blockchain/TapscottBackend/contracts/Donations.sol",
  "compiler": {
    "name": "solc",
    "version": "0.5.12+commit.7709ece9.Emscripten.clang"
  },
  "schemaVersion": "3.0.18",
  "updatedAt": "2020-01-04T20:41:07.676Z",
  "networkType": "ethereum",
  "devdoc": {
    "methods": {}
  },
  "userdoc": {
    "methods": {}
  }
}