{
  "contractName": "Donations",
  "abi": [
    {
      "constant": true,
      "inputs": [
        {
          "internalType": "address",
          "name": "",
          "type": "address"
        },
        {
          "internalType": "uint256",
          "name": "",
          "type": "uint256"
        }
      ],
      "name": "DonationAddress",
      "outputs": [
        {
          "internalType": "string",
          "name": "sender",
          "type": "string"
        },
        {
          "internalType": "string",
          "name": "receiver",
          "type": "string"
        },
        {
          "internalType": "uint256",
          "name": "timestamp",
          "type": "uint256"
        },
        {
          "internalType": "uint256",
          "name": "amount",
          "type": "uint256"
        }
      ],
      "payable": false,
      "stateMutability": "view",
      "type": "function"
    },
    {
      "constant": false,
      "inputs": [
        {
          "internalType": "string",
          "name": "_sender",
          "type": "string"
        },
        {
          "internalType": "string",
          "name": "_receiver",
          "type": "string"
        },
        {
          "internalType": "uint256",
          "name": "_timestamp",
          "type": "uint256"
        },
        {
          "internalType": "uint256",
          "name": "_amount",
          "type": "uint256"
        }
      ],
      "name": "addDonation",
      "outputs": [],
      "payable": false,
      "stateMutability": "nonpayable",
      "type": "function"
    },
    {
      "constant": true,
      "inputs": [],
      "name": "getDonations",
      "outputs": [
        {
          "internalType": "uint256[]",
          "name": "",
          "type": "uint256[]"
        }
      ],
      "payable": false,
      "stateMutability": "view",
      "type": "function"
    },
    {
      "constant": true,
      "inputs": [],
      "name": "getUserDonations",
      "outputs": [
        {
          "internalType": "uint256[]",
          "name": "",
          "type": "uint256[]"
        },
        {
          "internalType": "uint256[]",
          "name": "",
          "type": "uint256[]"
        }
      ],
      "payable": false,
      "stateMutability": "view",
      "type": "function"
    },
    {
      "constant": true,
      "inputs": [],
      "name": "returnEncodedStruct",
      "outputs": [
        {
          "internalType": "bytes32",
          "name": "",
          "type": "bytes32"
        }
      ],
      "payable": false,
      "stateMutability": "view",
      "type": "function"
    },
    {
      "constant": true,
      "inputs": [],
      "name": "calculateTotalDonationAmount",
      "outputs": [
        {
          "internalType": "uint256",
          "name": "",
          "type": "uint256"
        }
      ],
      "payable": false,
      "stateMutability": "view",
      "type": "function"
    }
  ],
  "bytecode": "0x608060405234801561001057600080fd5b50610e0e806100206000396000f3fe608060405234801561001057600080fd5b50600436106100625760003560e01c806308150c641461006757806378253e3b14610085578063a728c3421461012c578063ccf5ccd31461014a578063e25f8416146102b0578063e8e8ae901461030f575b600080fd5b61006f610450565b6040518082815260200191505060405180910390f35b61008d6104a2565b604051808060200180602001838103835285818151815260200191508051906020019060200280838360005b838110156100d45780820151818401526020810190506100b9565b50505050905001838103825284818151815260200191508051906020019060200280838360005b838110156101165780820151818401526020810190506100fb565b5050505090500194505050505060405180910390f35b6101346106e3565b6040518082815260200191505060405180910390f35b6102ae6004803603608081101561016057600080fd5b810190808035906020019064010000000081111561017d57600080fd5b82018360208201111561018f57600080fd5b803590602001918460018302840111640100000000831117156101b157600080fd5b91908080601f016020809104026020016040519081016040528093929190818152602001838380828437600081840152601f19601f8201169050808301925050505050505091929192908035906020019064010000000081111561021457600080fd5b82018360208201111561022657600080fd5b8035906020019184600183028401116401000000008311171561024857600080fd5b91908080601f016020809104026020016040519081016040528093929190818152602001838380828437600081840152601f19601f820116905080830192505050505050509192919290803590602001909291908035906020019092919050505061098c565b005b6102b8610af9565b6040518080602001828103825283818151815260200191508051906020019060200280838360005b838110156102fb5780820151818401526020810190506102e0565b505050509050019250505060405180910390f35b61035b6004803603604081101561032557600080fd5b81019080803573ffffffffffffffffffffffffffffffffffffffff16906020019092919080359060200190929190505050610b92565b604051808060200180602001858152602001848152602001838103835287818151815260200191508051906020019080838360005b838110156103ab578082015181840152602081019050610390565b50505050905090810190601f1680156103d85780820380516001836020036101000a031916815260200191505b50838103825286818151815260200191508051906020019080838360005b838110156104115780820151818401526020810190506103f6565b50505050905090810190601f16801561043e5780820380516001836020036101000a031916815260200191505b50965050505050505060405180910390f35b6000806000905060008090505b60008054905081101561049a576000818154811061047757fe5b90600052602060002090600402016003015482019150808060010191505061045d565b508091505090565b6060806060600160003373ffffffffffffffffffffffffffffffffffffffff1673ffffffffffffffffffffffffffffffffffffffff168152602001908152602001600020805490506040519080825280602002602001820160405280156105185781602001602082028038833980820191505090505b5090506060600160003373ffffffffffffffffffffffffffffffffffffffff1673ffffffffffffffffffffffffffffffffffffffff1681526020019081526020016000208054905060405190808252806020026020018201604052801561058e5781602001602082028038833980820191505090505b50905060008090505b600160003373ffffffffffffffffffffffffffffffffffffffff1673ffffffffffffffffffffffffffffffffffffffff168152602001908152602001600020805490508110156106d657600160003373ffffffffffffffffffffffffffffffffffffffff1673ffffffffffffffffffffffffffffffffffffffff168152602001908152602001600020818154811061062b57fe5b90600052602060002090600402016003015483828151811061064957fe5b602002602001018181525050600160003373ffffffffffffffffffffffffffffffffffffffff1673ffffffffffffffffffffffffffffffffffffffff168152602001908152602001600020818154811061069f57fe5b9060005260206000209060040201600201548282815181106106bd57fe5b6020026020010181815250508080600101915050610597565b5081819350935050509091565b60006106ed610d0c565b600080815481106106fa57fe5b9060005260206000209060040201604051806080016040529081600082018054600181600116156101000203166002900480601f0160208091040260200160405190810160405280929190818152602001828054600181600116156101000203166002900480156107ac5780601f10610781576101008083540402835291602001916107ac565b820191906000526020600020905b81548152906001019060200180831161078f57829003601f168201915b50505050508152602001600182018054600181600116156101000203166002900480601f01602080910402602001604051908101604052809291908181526020018280546001816001161561010002031660029004801561084e5780601f106108235761010080835404028352916020019161084e565b820191906000526020600020905b81548152906001019060200180831161083157829003601f168201915b505050505081526020016002820154815260200160038201548152505090508060000151816020015182604001518360600151604051602001808060200180602001858152602001848152602001838103835287818151815260200191508051906020019080838360005b838110156108d45780820151818401526020810190506108b9565b50505050905090810190601f1680156109015780820380516001836020036101000a031916815260200191505b50838103825286818151815260200191508051906020019080838360005b8381101561093a57808201518184015260208101905061091f565b50505050905090810190601f1680156109675780820380516001836020036101000a031916815260200191505b5096505050505050506040516020818303038152906040528051906020012091505090565b610994610d0c565b6040518060800160405280868152602001858152602001848152602001838152509050600081908060018154018082558091505090600182039060005260206000209060040201600090919290919091506000820151816000019080519060200190610a01929190610d34565b506020820151816001019080519060200190610a1e929190610d34565b506040820151816002015560608201518160030155505050600160003373ffffffffffffffffffffffffffffffffffffffff1673ffffffffffffffffffffffffffffffffffffffff16815260200190815260200160002081908060018154018082558091505090600182039060005260206000209060040201600090919290919091506000820151816000019080519060200190610abd929190610d34565b506020820151816001019080519060200190610ada929190610d34565b5060408201518160020155606082015181600301555050505050505050565b606080600080549050604051908082528060200260200182016040528015610b305781602001602082028038833980820191505090505b50905060008090505b600080549050811015610b8a5760008181548110610b5357fe5b906000526020600020906004020160030154828281518110610b7157fe5b6020026020010181815250508080600101915050610b39565b508091505090565b60016020528160005260406000208181548110610bab57fe5b906000526020600020906004020160009150915050806000018054600181600116156101000203166002900480601f016020809104026020016040519081016040528092919081815260200182805460018160011615610100020316600290048015610c585780601f10610c2d57610100808354040283529160200191610c58565b820191906000526020600020905b815481529060010190602001808311610c3b57829003601f168201915b505050505090806001018054600181600116156101000203166002900480601f016020809104026020016040519081016040528092919081815260200182805460018160011615610100020316600290048015610cf65780601f10610ccb57610100808354040283529160200191610cf6565b820191906000526020600020905b815481529060010190602001808311610cd957829003601f168201915b5050505050908060020154908060030154905084565b6040518060800160405280606081526020016060815260200160008152602001600081525090565b828054600181600116156101000203166002900490600052602060002090601f016020900481019282601f10610d7557805160ff1916838001178555610da3565b82800160010185558215610da3579182015b82811115610da2578251825591602001919060010190610d87565b5b509050610db09190610db4565b5090565b610dd691905b80821115610dd2576000816000905550600101610dba565b5090565b9056fea265627a7a723158207da54e529c5d2680ae3be6f05633bbb56b4398269b461928172c3767847bb46b64736f6c634300050c0032",
  "source": "pragma solidity >=0.4.22 <0.6.0;\n\ncontract Donations {\n    \n    struct Donation {\n        string sender;\n        string receiver;\n        uint timestamp;\n        uint amount;\n    }\n    \n    Donation[] donationCollection;\n    \n    mapping (address => Donation[]) public DonationAddress;\n    \n    // enter a new donation\n    function addDonation(string memory _sender, string memory _receiver, uint _timestamp, uint _amount) public{\n        Donation memory newDonation = Donation(_sender, _receiver, _timestamp, _amount);\n        donationCollection.push(newDonation);\n        DonationAddress[msg.sender].push(newDonation);\n    }\n    \n    //return all donations\n    function getDonations() public view returns(uint[] memory){\n        // return donationCollection;\n        uint256[] memory sum = new uint256[](donationCollection.length);\n        for (uint i = 0; i < donationCollection.length; i++) {\n            sum[i] = donationCollection[i].amount;\n        } \n        return sum;\n    }\n    \n    //return all user donations\n    function getUserDonations() public view returns(uint[] memory, uint[] memory){\n        // return DonationAddress[msg.sender];\n        uint256[] memory sum = new uint256[](DonationAddress[msg.sender].length);\n        uint256[] memory timesum = new uint256[](DonationAddress[msg.sender].length);\n        for (uint i = 0; i < DonationAddress[msg.sender].length; i++) {\n            sum[i] = DonationAddress[msg.sender][i].amount;\n            timesum[i] = DonationAddress[msg.sender][i].timestamp;\n        }\n        return (sum, timesum);\n    }\n    \n    function returnEncodedStruct() public view returns(bytes32) {\n        Donation memory don = donationCollection[0];\n        return keccak256(abi.encode(don.sender, don.receiver, don.timestamp, don.amount));\n    }\n    \n    //Check total donation amount\n    function calculateTotalDonationAmount() public view returns(uint){\n        uint sum = 0;\n        for (uint i = 0; i < donationCollection.length; i++) {\n            sum += donationCollection[i].amount;\n        }\n        return sum;\n    }\n}",
  "sourcePath": "/Users/daandirker/Development/Blockchain/TapscottBackend/contracts/Donations.sol",
  "compiler": {
    "name": "solc",
    "version": "0.5.12+commit.7709ece9.Emscripten.clang"
  },
  "schemaVersion": "3.0.18",
  "updatedAt": "2019-11-14T20:29:52.646Z",
  "networkType": "ethereum",
  "devdoc": {
    "methods": {}
  },
  "userdoc": {
    "methods": {}
  }
}